:020000040800F2
:1000000000000220B10D0008C10C0008C30C00085C
:10001000C50C0008C70C0008C90C0008000000004F
:10002000000000000000000000000000CB0C0008F1
:10003000CD0C000800000000CF0C0008D10C000817
:10004000010E0008010E0008010E0008010E000854
:10005000010E0008010E0008010E0008010E000844
:10006000010E0008010E0008010E0008010E000834
:10007000010E0008010E0008010E0008010E000824
:10008000010E0008010E0008010E0008000000002B
:10009000000000000000000000000000010E000849
:1000A000010E0008010E0008010E0008010E0008F4
:1000B000010E0008010E0008010E0008010E0008E4
:1000C000010E0008010E0008010E0008010E0008D4
:1000D000010E0008D90C0008010E00080000000005
:1000E000010E0008010E0008010E000800000000CB
:1000F000000000000000000000000000010E0008E9
:1001000000000000010E0008010E0008010E0008AA
:1001100000000000000000000000000000000000DF
:10012000010E0008010E0008010E0008010E000873
:10013000010E0008000000000000000000000000A8
:10014000000000000000000000000000E90C0008B2
:10015000010E0008010E0008010E0008010E000843
:10016000010E0008010E0008000000000000000061
:10017000000000000000000000000000000000007F
:1001800000000000010E0008000000000000000058
:08019000010E0008010E000839
:1001980010B5054C237833B9044B13B10448AFF3B9
:1001A80000800123237010BD2405002000000000FA
:1001B8007452000808B5034B1BB103490348AFF359
:1001C800008008BD000000002805002074520008C7
:1001D80053B94AB9002908BF00281CBF4FF0FF31A6
:1001E8004FF0FF3000F074B9ADF1080C6DE904CEA2
:1001F80000F006F8DDF804E0DDE9022304B07047FA
:100208002DE9F047089E0D4604468846002B4DD13F
:100218008A42944668D9B2FA82F252B101FA02F3DC
:10022800C2F1200120FA01F10CFA02FC41EA0308AC
:1002380094404FEA1C45210CB8FBF5FE1FFA8CF7D9
:1002480005FB1E8341EA03430EFB07F199420BD9D4
:100258001CEB03030EF1FF3080F01E81994240F23F
:100268001B81AEF1020E63445B1AA4B2B3FBF5F036
:1002780005FB103344EA034400FB07F7A7420AD9F9
:100288001CEB040400F1FF3380F00881A74240F220
:10029800058164440238E41B40EA0E4000211EB187
:1002A800D4400023C6E90043BDE8F0878B4208D953
:1002B800002E00F0EE800021C6E900050846BDE8E2
:1002C800F087B3FA83F100294AD1AB4202D38242C4
:1002D80000F2F980841A65EB030301209846002E8A
:1002E800E2D0C6E90048DFE702B9FFDEB2FA82F2DF
:1002F800002A40F09180A1EB0C054FEA1C471FFA39
:100308008CFE0121B5FBF7F307FB1350250C45EADA
:1003180000450EFB03F0A84208D91CEB050503F1C4
:10032800FF3802D2A84200F2CB8043462D1AA4B26D
:10033800B5FBF7F007FB105544EA05440EFB00FE39
:10034800A64508D91CEB040400F1FF3502D2A645E6
:1003580000F2BB802846A4EB0E0440EA03409EE767
:10036800C1F120078B4022FA07FC4CEA030C20FA63
:1003780007F405FA01F31C43FD404FEA1C4900FA53
:1003880001F3B5FBF9F8200C1FFA8CFE09FB185590
:1003980040EA054508FB0EF0A84202FA01F20BD923
:1003A8001CEB050508F1FF3A80F08880A84240F26E
:1003B8008580A8F1020865442D1AA4B2B5FBF9F0AE
:1003C80009FB105544EA054500FB0EFEAE4508D969
:1003D8001CEB050500F1FF346CD2AE456AD9023832
:1003E800654440EA0840A0FB0294A5EB0E05A5422F
:1003F800C846A64656D353D05EB1B3EB080265EBA8
:100408000E0505FA07F722FA01F3CD401F43C6E9A6
:1004180000750021BDE8F087C2F1200320FA03F13E
:100428000CFA02FC25FA03F395400D434FEA1C47EA
:100438001FFA8CFEB3FBF7F107FB11302B0C43EAD4
:10044800004301FB0EF0984204FA02F408D91CEBB1
:10045800030301F1FF382FD298422DD902396344A2
:100468001B1AADB2B3FBF7F007FB103345EA03459F
:1004780000FB0EF3AB4208D91CEB050500F1FF3871
:1004880016D2AB4214D902386544ED1A40EA01414C
:1004980038E73146304607E78646E5E61846FAE685
:1004A8004B45A9D2B9EB020864EB0C0E0138A3E75F
:1004B8004046EAE7204694E74146D1E7D0467BE745
:1004C800023B654432E7084609E76444023842E7DC
:1004D800704700BF844641EA000313F003036DD15F
:1004E800403A41D351F8043B40F8043B51F8043BEF
:1004F80040F8043B51F8043B40F8043B51F8043BF6
:1005080040F8043B51F8043B40F8043B51F8043BE5
:1005180040F8043B51F8043B40F8043B51F8043BD5
:1005280040F8043B51F8043B40F8043B51F8043BC5
:1005380040F8043B51F8043B40F8043B51F8043BB5
:1005480040F8043B51F8043B40F8043B51F8043BA5
:1005580040F8043B51F8043B40F8043B51F8043B95
:1005680040F8043B403ABDD2303211D351F8043B35
:1005780040F8043B51F8043B40F8043B51F8043B75
:1005880040F8043B51F8043B40F8043B103AEDD2E4
:100598000C3205D351F8043B40F8043B043AF9D235
:1005A800043208D0D2071CBF11F8013B00F8013B08
:1005B80001D30B8803806046704700BF082A13D315
:1005C8008B078DD010F003038AD0C3F10403D21A2D
:1005D800DB071CBF11F8013B00F8013B80D331F861
:1005E800023B20F8023B7BE7043AD9D3013A11F8E1
:1005F800013B00F8013BF9D20B7803704B7843704C
:100608008B7883706046704710B582B0BDF8104093
:1006180000949BB292B289B280B200F05FF902B046
:1006280010BD000000B583B00090064BB3F9003050
:10063800054AB2F9002000210846FFF7E5FF03B09C
:100648005DF804FB420500204605002008B500229D
:100658004021024800F0E2FD08BD00BF000402404E
:1006680008B501224021024800F0D8FD08BD00BFAE
:100678000004024010B5074C00228021204600F0FB
:10068800CDFD052000F00CFC01228021204600F061
:10069800C5FD10BD0004024000B583B08DF8070009
:1006A80000224FF40071074800F0B8FD4FF0FF3307
:1006B80001220DF10701044802F03FF803B05DF88C
:1006C80004FB00BF000002404C05002038B5054679
:1006D8000C4601224FF40071074800F09FFD0023EB
:1006E80000E00133A342FCD34FF0FF33A2B2294606
:1006F800024802F022F838BD000002404C050020F4
:10070800F8B5064616F8012B09E039462046FFF7EA
:10071800DDFF3C440FE000F0C3FB2A462646531E8B
:10072800DDB292B1344614F8020BFFF7B5FF7678C4
:1007380016F07F07E9D116F0800FEED014F8010B00
:10074800FF28E8D14FF4FA70E5E7F8BDF0B583B0BB
:1007580005460C4617461E462A20FFF79DFF002334
:100768008DF80430114A11780D448DF805508DF834
:10077800063039448DF8071004210DEB0100FFF70E
:10078800A5FF2B20FFF788FF094B1A7814448DF832
:10079800054032448DF8072004210DEB0100FFF7D6
:1007A80095FF2C20FFF778FF03B0F0BD4805002027
:1007B8004905002000B583B000238DF8073000F00C
:1007C80003002D4B1870032814D8DFE800F002222C
:1007D8003342C0238DF80730284BA0221A80284BBB
:1007E80080221A80274B1A78274B1A70274B1A78C1
:1007F800274B1A70FFF72AFF3620FFF74DFF01211C
:100808000DF10700FFF762FFFFF72AFF03B05DF85D
:1008180004FBA0238DF80730194A1380174B802258
:100828001A80184B1A781A4B1A70184B1A78164BEC
:100838001A70DFE7114BA0221A80114B80221A8010
:10084800104B1A78104B1A70104B1A78104B1A70FC
:10085800D0E760238DF80730094BA0221A80074B98
:1008680080221A80074B1A78094B1A70074B1A789E
:10087800054B1A70BEE700BF4A050020420500205C
:1008880046050020400500204805002044050020BA
:100898004905002010B50446FFF7D8FEFFF7EAFE29
:1008A8000948FFF72DFF0948FFF72AFF0848FFF717
:1008B80027FF0023074A1370074A13702046FFF7E3
:1008C80079FFFFF7CDFE10BD8C520008C452000816
:1008D800D452000840050020440500202DE9F041CD
:1008E80082B01D46BDF82080244BB3F900309842F1
:1008F80040DA04460F461646214AB2F900209142D2
:1009080038DA31188B4202DA9EB2361AB6B2EB19CF
:100918009A4202DA95B2ED1BADB2FFF797FEE0B24C
:10092800F9B28219D2B24B19DBB2013B013ADBB200
:10093800D2B2FFF70BFF4FEA18238DF804308DF879
:10094800058001224FF400710E4800F067FC0CE0AE
:100958004FF0FF33022201A90B4801F0EEFE013CE3
:10096800A4B2002CF4D1013DADB20DB13446F8E784
:10097800FFF776FE02B0BDE8F08100BF4605002013
:1009880042050020000002404C050020F8B516463C
:10099800154AB2F9002090420DDA04460D461F466A
:1009A800124BB3F90030994205DA31188A4202DB5A
:1009B8007A19934200DAF8BDFFF748FEE0B2E9B2CF
:1009C8008219D2B2CB19DBB2013B013ADBB2D2B207
:1009D800FFF7BCFE07FB06F149000698FFF776FE15
:1009E800FFF73EFEE7E700BF46050020420500206E
:1009F8002DE9F0418AB000240594069407940894E0
:100A0800099401942E4B1A6B42F004021A631A6B74
:100A180002F004020192019A02941A6B42F08002D9
:100A28001A631A6B02F080020292029A03941A6BFC
:100A380042F001021A631A6B02F001020392039A50
:100A480004941A6B42F002021A631B6B03F0020350
:100A58000493049BDFF86C8022464FF40051404613
:100A680000F0DCFB184F22464FF40071384600F0C6
:100A7800D5FB164E2246C021304600F0CFFB4FF47E
:100A880000530593012506950794089405A9404647
:100A980000F0E4FA4FF40073059306950794089460
:100AA80005A9384600F0DAFAC0230593069507949D
:100AB800089405A9304600F0D1FA0AB0BDE8F081E3
:100AC80000380240000802400000024000040240D2
:100AD80072B6FEE700B595B03022002108A804F0F0
:100AE80003FB002303930493059306930793019351
:100AF8001F4A116C41F080511164126C02F080524F
:100B08000192019A02931B4B1A6842F440421A6000
:100B18001B6803F440430293029B012308934FF49C
:100B28008033099302230E934FF480020F92192207
:100B38001092C022119212930423139308A801F073
:100B4800DBF988B90F230393022304930023059349
:100B58004FF4805206920793032103A801F01AFC70
:100B680020B915B05DF804FBFFF7B2FFFFF7B0FF3F
:100B7800003802400070004008B500F065F9FFF742
:100B8800A9FFFFF735FF00F01FF800F0B3F804F0F5
:100B980021F80C4C00224FF40051204600F03EFB97
:100BA8000020FFF777FE01224FF40051204600F0A5
:100BB80035FB0020FFF736FD4FF4FA7000F070F9AE
:100BC800FAE700BF0008024008B50F480F4B036062
:100BD8004FF4827343604FF4004383600023C36083
:100BE800036143614FF4007282611022C2610362A3
:100BF800436283620A23C36201F040FD00B908BD65
:100C0800FFF766FFFBE700BF4C05002000300140FE
:100C180000B589B0002303930493059306930793C3
:100C28000268154B9A4202D009B05DF804FB002116
:100C3800019103F584335A6C42F480525A645A6C19
:100C480002F480520192019A02911A6B42F0010259
:100C58001A631B6B03F001030293029BA023039307
:100C680002230493032306930523079303A9034848
:100C780000F0F4F9D8E700BF00300140000002405E
:100C880082B0002100910B4B5A6C42F480425A64A6
:100C98005A6C02F480420092009A01911A6C42F058
:100CA80080521A641B6C03F080530193019B02B0BD
:100CB800704700BF00380240FEE7FEE7FEE7FEE7A8
:100CC800FEE770477047704708B500F0D7F808BDD1
:100CD80008B5024801F0AEFF08BD00BFA40500201A
:100CE80008B5024800F0FCFD08BD00BFD4BA0020DA
:100CF8007047000008B50A480A4B03604FF4E13317
:100D0800436000238360C36003610C2242618361F6
:100D1800C36101F0D5FE00B908BDFFF7D9FEFBE7B6
:100D2800A40500200010014010B588B000230393EB
:100D38000493059306930793026803F1804303F530
:100D480088339A4201D008B010BD0024019403F5FD
:100D580094335A6C42F010025A645A6C02F0100232
:100D68000192019A02941A6B42F001021A631B6BFA
:100D780003F001030293029B4FF4044303930223FD
:100D88000493032306930723079303A9054800F058
:100D980065F922462146252000F0A8F8252000F014
:100DA800DDF8D0E700000240DFF834D00D480E49E6
:100DB8000E4A002302E0D458C4500433C4188C42AD
:100DC800F9D30B4A0B4C002301E013600432A24212
:100DD800FBD3FFF78DFF04F063F9FFF7CDFE7047F3
:100DE800000002200000002024050020785300089D
:100DF8002405002004C20020FEE7000010B50446C8
:100E08000E4B18784FF47A73B3FBF0F30C4A106862
:100E1800B0FBF3F000F0B0F868B90F2C01D901204D
:100E28000AE0002221464FF0FF3000F05FF8054B42
:100E38001C60002000E0012010BD00BF040000205D
:100E4800000000200800002008B50B4B1A6842F487
:100E580000721A601A6842F480621A601A6842F4D2
:100E680080721A60032000F02FF80F20FFF7C6FFEA
:100E7800FFF706FF002008BD003C0240034A116846
:100E8800034B1B780B441360704700BFE805002034
:100E980004000020014B1868704700BFE8050020D7
:100EA80038B50446FFF7F6FF0546B4F1FF3F02D018
:100EB800044B1B781C44FFF7EDFF401BA042FAD3FC
:100EC80038BD00BF04000020074AD36823F4E0635C
:100ED8001B041B0C000200F4E060034343F0BF63F3
:100EE80043F40033D360704700ED00E000B5194BC0
:100EF800DB68C3F30223C3F1070CBCF1040F28BF5E
:100F08004FF0040C03F1040EBEF1060F18D9033B91
:100F18004FF0FF3E0EFA0CFC21EA0C0199400EFA44
:100F280003F322EA0303194300280BDB0901C9B2C2
:100F380000F1604000F5614080F800135DF804FBA3
:100F48000023E5E700F00F000901C9B2024B19546C
:100F5800F4E700BF00ED00E014ED00E0002807DB37
:100F680000F01F02400901239340024A42F8203052
:100F7800704700BF00E100E00138B0F1807F0BD27C
:100F88004FF0E0235861054AF02182F82310002031
:100F9800986107221A6170470120704700ED00E050
:100FA80070B50446866DFFF775FF94F83530DBB2EF
:100FB800022B06D080236365002384F83430012097
:100FC80070BD05462268136823F016031360226873
:100FD800536923F080035361236CE3B122681368DB
:100FE80023F0080313602268136823F001031360D9
:100FF80023681B6813F0010F11D0FFF74BFF431B49
:10100800052BF5D920236365032084F835000023D8
:1010180084F83430D4E7A36C002BDFD1E3E7E26D2A
:101028003F239340B360012384F83530002084F8CF
:101038003400C5E790F83530DBB2022B03D08023AB
:10104800436501207047052380F83530026813682E
:1010580023F00103136000207047000000230F2BCA
:1010680000F2D28070B582B060E085685E0003242B
:10107800B44025EA0405CC68B4402C438460456834
:1010880025EA02054C68C4F300129A402A434260DC
:101098005AE0DC08083450F8246003F00702950091
:1010A8000F22AA4026EA020E0A69AA4042EA0E0264
:1010B80040F824205CE0042200E0002202FA0EF24C
:1010C8002A430234514D45F82420514A94686FEA66
:1010D8000C0224EA0C054E6816F4801F01D04CEA75
:1010E80004054B4CA560E46802EA04054E6816F452
:1010F800001F01D04CEA0405454CE560646802EA2B
:1011080004054E6816F4003F01D04CEA0405404C33
:101118006560246822404D6815F4803F01D04CEA90
:1011280004023B4C226001330F2B6BD801229A40FA
:101138000C6804EA020C32EA0404F4D14C6804F0A6
:101148000304013C012C90D94A6802F00302032AE7
:1011580009D0C4685D000322AA4024EA02048A6810
:10116800AA402243C2604A6802F00302022A90D0D1
:1011780004684FEA430E032202FA0EF224EA02043C
:101188004A6802F0030202FA0EF2224302604A6839
:1011980012F4403FC7D0002201921E4A546C44F416
:1011A80080445464526C02F480420192019A9C0873
:1011B800A51C164A52F8255003F003024FEA820E86
:1011C8000F2202FA0EF225EA0205134A90423FF472
:1011D80074AF02F5806290420ED002F580629042B0
:1011E8000CD002F5806290420AD002F580629042EB
:1011F8003FF461AF072261E701225FE702225DE762
:1012080003225BE702B070BD704700BF00380140A1
:10121800003C014000380240000002400AB18161F0
:1012280070470904816170472DE9F04383B0D0F815
:10123800008001EBC10300EB8303DA6D5B6D9A421A
:1012480054D807460C469B1A01EBC10200EB8202F8
:10125800926C9A4200D31A4602F103094FEA99099F
:1012680015E006F103094FEA990904EBC40507EBF9
:101278008505E96C3B7C0093B3B2E2B2404602F0CC
:10128800E5F9EB6C3344EB64EB6D3344EB6508EB49
:10129800441303F510639B699BB24B4512D304EBCF
:1012A800C40207EB8202D16D536D99420AD24BB149
:1012B8005B1A04EBC40207EB8202966C9E42D0D301
:1012C8001E46CEE704EBC40007EB80077A6DFB6D82
:1012D8009A420FD804F00F040123A340D8F83448E9
:1012E80024EA0304C8F83448002000E0012003B0D1
:1012F800BDE8F0830020FAE770B58AB0002800F056
:1013080090800546046890F8BD343BB3032385F804
:10131800BD34E36B13F4807F01D100232B6128686F
:1013280001F0AEFE2C4654F8106BEC460FCCACE83E
:101338000F000FCCACE80F0094E803008CE8030022
:101348002B1D0ECB304601F0DDFD044658B10223BB
:1013580085F8BD34012420460AB070BD80F8BC343D
:1013680003F04AFDD2E70021286802F086FB2346F5
:1013780016E003EBC30205EB8202012182F83D105F
:1013880082F83C30A2F84430002182F84010916481
:10139800D16403EBC30205EB820251650133DBB272
:1013A80069688B42E5D316E004EBC40305EB8303BD
:1013B800002283F87D2283F87C4283F88022C3F8D8
:1013C8008822C3F88C2204EBC40305EB8303C3F81B
:1013D80094220134E4B2A142E6D82C4654F8106BAA
:1013E800EC460FCCACE80F000FCCACE80F0094E84B
:1013F80003008CE803002B1D0ECB304601F09CFE49
:10140800044620B1022385F8BD340124A3E7002354
:1014180085F83830012385F8BD34286802F0EBFAE6
:1014280099E7012497E7026890F8BC34012B19D09A
:1014380010B50446012380F8BC34836A012B09D017
:10144800206801F017FE206802F0C7FA002084F82F
:10145800BC0410BD8369012BF2D0936B43F4803335
:101468009363EDE70220704770B504460D460068A7
:10147800066C00EB411303F530639A682169012972
:1014880011D038498E4256D03DB905EBC50304EB5F
:101498008303D3F89432002B5ED0E9B2204603F0E0
:1014A800F5FC002070BD12F0080F09D02E498E42BD
:1014B800F7D912F4004FF4D04FF400429A60F0E7E5
:1014C80012F0200F02D020229A60EAE712F0280FCB
:1014D800E7D125498E4206D912F4004F03D04FF4C4
:1014E80000429A60DDE705EBC50204EB8202D2F800
:1014F80098121B69C3F31203CB1AC2F89C327DB948
:1015080005EBC50204EB8202D2F894226AB105EB1E
:10151800C50204EB8202D2F88C120B44C2F88C325A
:10152800E9B2204603F0B2FCBBE704F2C442012151
:1015380002F0E4FAF4E712F4004F03D04FF400424B
:101548009A60AEE712F0200F01D020229A60E9B22B
:10155800204603F09BFCA4E704F2C442002102F0F9
:10156800CDFA9AE70A31544F0A30544F38B5044639
:1015780003681D6C03EB4113D3F8081B0E4A954210
:1015880007D903F5306311F4004F02D04FF400423D
:101598009A60204603F072FC074B9D4202D92369EA
:1015A800012B01D0002038BD04F2C442012120687B
:1015B80002F0A4FAF6E700BF0A30544F90F8BC34A2
:1015C800012B0DD010B50446012380F8BC3480F8F7
:1015D8003810006802F0F1F9002084F8BC0410BD4E
:1015E8000220704738B505468C4611F0800F29D186
:1015F80001F00F0E0EEBCE04A40004F51E74044493
:10160800211D0EEBCE0E00EB8E0E00208EF87D0213
:101618000CF00F0C81F800C0CA600B714A780AB14F
:10162800A1F808C0022B1DD095F8BC34012B1CD0A2
:10163800012385F8BC34286801F057FE002085F89E
:10164800BC0438BD01F00F0000EBC001890038313F
:101658002944043100EBC00005EB8000012480F828
:101668003D40D5E700234B71DEE70220E9E710B5DE
:1016780004460A4611F0800F20D101F00F0000EB5C
:10168800C0039B0003F51E732344191D00EBC00023
:1016980004EB8000002380F87D3202F00F020A700C
:1016A80094F8BC34012B19D0012384F8BC34206889
:1016B80001F06AFE002084F8BC0410BD01F00F00A0
:1016C80000EBC0039B0038332344191D00EBC00016
:1016D80004EB8000012380F83D30DEE70220ECE7D0
:1016E80010B501F00F0404EBC401890001F51E7167
:1016F8000144043104EBC40C00EB8C0CCCF88C22B4
:10170800CCF894320023CCF89C328CF87D328CF8DB
:101718007C420369012B06D064B9DAB2006801F093
:10172800A3FE002010BD04EBC40C00EB8C0CCCF81D
:101738009022F1E7DAB2006801F0A0FFF1E701F0CA
:101748000F0101EBC10100EB8101D1F89C02704748
:1017580010B501F00F0404EBC401890038310144CD
:10176800043104EBC40C00EB8C0CCCF84C20CCF806
:1017780054300023CCF85C3001238CF83D308CF8D1
:101788003C400369012B06D064B9DAB2006801F065
:101798006BFE002010BD04EBC40C00EB8C0CCCF8E5
:1017A8005020F1E7DAB2006801F068FFF1E738B5D8
:1017B80001F00F054268954239D804460B4611F0EE
:1017C800800F1FD101EBC101890001F51E71014491
:1017D800043103EBC30300EB8303002283F87D226B
:1017E80001238B700D7094F8BC34012B21D0012398
:1017F80084F8BC34206802F085F88DB1002084F8A4
:10180800BC0438BD05EBC5018900383101440431F9
:1018180005EBC50300EB8303012283F83D20DFE7D6
:1018280004F2C442217C206802F068F9E6E701204E
:10183800E7E70220E5E701F00F034268934231D859
:1018480010B5044611F0800F1ED103EBC3018900C7
:1018580001F51E710144043103EBC30200EB82025F
:10186800002082F87D0200228A700B7094F8BC3444
:10187800012B19D0012384F8BC34206802F06FF8DA
:10188800002084F8BC0410BD03EBC3018900383183
:101898000144043103EBC30200EB8202012082F809
:1018A8003D00E0E7012070470220ECE708B511F0A1
:1018B800800F0CD101F00F0101EBC101890001F586
:1018C8001E7101440431006801F062FE08BD01F098
:1018D8000F0101EBC1018900383101440431F2E7FD
:1018E8002DE9F04F83B004460568284602F0C1F898
:1018F80010B103B0BDE8F08F0646206802F089F801
:101908000028F6D005F50067BB68C3F30D23C4F8BB
:10191800FC34206802F07DF810F0020F04D0226831
:10192800536903F002035361206802F072F810F063
:10193800100F13D02268936923F010039361D5F830
:10194800208008F00F09C8F34343022B4BD0062B25
:101958006FD02268936943F010039361206802F006
:1019680058F810F4002F76D1206802F052F810F4DD
:10197800802F40F0E080206802F04BF80028C0F289
:101988006381206802F045F810F4006F09D0BB6845
:1019980013F0010F40F070812268536903F400636B
:1019A8005361206802F035F810F4805F40F06881D8
:1019B800206802F02EF810F4005F40F0B58120682E
:1019C80002F027F810F0080F40F0C681206802F0F6
:1019D80020F810F0800F00F0D981AB6923F0800364
:1019E800AB610126C2E147F6F07318EA030FB0D0E5
:1019F8004FEA181B4FEAC903019309EBC90A04EB24
:101A08008A0AC8F30A12DAF88C12284601F050FF45
:101A1800CBF30A0BDAF88C325B44CAF88C32019BA0
:101A28004B4404EB8303D3F89C325B44CAF89C32E2
:101A38008FE7082204F2C441284601F039FFC8F3B1
:101A48000A1809EBC90204EB8202D2F89C3243441B
:101A5800C2F89C327DE7206801F0DFFF8046B1467E
:101A680035E005EB49130122C3F8082B4946204607
:101A7800FFF7FAFC3CE005EB49130822C3F8082BF2
:101A880049462046FFF772FD35E009EBC90304EB30
:101A9800830393F87F32012B41D005EB49130222CF
:101AA800C3F8082B1AF0200F04D005EB49132022A5
:101AB800C3F8082B1AF4005F05D005EB49134FF45F
:101AC8000052C3F8082B09F101094FEA5808B8F188
:101AD800000F3FF449AF18F0010FF4D05FFA89FB0B
:101AE8005946206801F0A9FF824610F0010FB8D1CD
:101AF8001AF0080FBFD11AF0100F04D005EB4913E4
:101B08001022C3F8082B1AF0020FCBD06B6913F020
:101B1800800FBAD07B6843F480637B60B5E709EB3C
:101B2800C90304EB8303002283F87F225946204629
:101B380003F0FAF9B1E7206801F077FF8046B14673
:101B480025E05946204603F0ADF91AF0080F04D0F5
:101B580005EB49130822C3F808291AF0100F04D01E
:101B680005EB49131022C3F808291AF0400F04D0D6
:101B780005EB49134022C3F808291AF0020F40D197
:101B88001AF0800F5BD109F101094FEA5808B8F142
:101B9800000F3FF4F0AE18F0010FF4D05FFA89FBA4
:101BA8005946206801F052FF824610F0010FCCD050
:101BB80009F00F03012101FA03F27B6B23EA020308
:101BC8007B6305EB4913C3F8081923698B42B8D125
:101BD80009EBC90304EB8303996CDA6C0A44DA64F1
:101BE800B9F1000FADD109EBC90304EB83035B6DB9
:101BF800002BA6D104F2C4420121206801F07EFF27
:101C08009FE74946284601F041FA09EBC90304EB6E
:101C1800830393F83F30012B05D005EB49130222CB
:101C2800C3F80829ACE709EBC90304EB83030022D6
:101C380083F83F205946204603F07CF9EDE74946F2
:101C48002046FFF7F1FA9EE77B6823F001037B60EB
:101C580094F8F434012B08D0204603F05FF9226889
:101C6800536903F0004353618BE6002184F8F414B0
:101C7800204600F040F9F2E7204603F037F98BE6FA
:101C88007B6823F001037B601021206801F0FEF9D6
:101C98001AE005EB46134FF67F31C3F80819D3F85D
:101CA800002922F40012C3F80029C3F8081BD3F84E
:101CB800002B22F40012C3F8002BD3F8002B42F0BB
:101CC8000062C3F8002B01366368B342E1D8FB69B0
:101CD80043F00113FB61236BDBB1D7F8843043F089
:101CE8000B03C7F884307B6C43F00B037B64D5F897
:101CF800003823F4FE63C5F8003804F2C442217C9E
:101D0800206801F0FBFE2268536903F48053536195
:101D18004EE67B6943F4005343F02B037B613B6938
:101D280043F00B033B61E2E7206801F0D7FE20682F
:101D380001F0CAFAE060266800F0DCFB0146227B6D
:101D4800304601F025F9204603F0BDF822685369B2
:101D580003F40053536132E6204603F0AEF82268DC
:101D6800536903F00803536130E601366368B342F0
:101D78000CD906EBC60304EB830393F87F32012BDF
:101D8800F3D1F1B22046FFF791FDEEE7206801F0AC
:101D980040FE10F4801F27D1206801F03AFE10F4AD
:101DA800001F5BD0012328E001366368B3421DD9C8
:101DB80005EB4613D3F8002906EBC60304EB8303AF
:101DC80093F84030012BEFD1002AEDDA06EBC60379
:101DD80004EB8303012283F83F2066F07F01C9B238
:101DE8002046FFF763FDDFE70126DEE72268536937
:101DF80003F480135361CFE7013362689A4228D90C
:101E080005EB4312D2F8001B03EBC30204EB82027A
:101E180092F88022012AEFD10029EDDA01F480310D
:101E2800D4F8FC2402F001029142E5D103EBC3028D
:101E380004EB8202012182F87F12AA6942F0800233
:101E4800AA616A6912F0800FD6D17B6843F40073E7
:101E58007B602268536903F400135361206801F022
:101E6800D8FD10F0804F10D1206801F0D2FD10F09D
:101E7800040F3FF43EAD23685D6815F0040F0DD1E3
:101E8800226853682B43536033E5204603F058F823
:101E98002268536903F080435361E5E7204603F065
:101EA80055F8EDE710B40468606A29B940EA0240C1
:101EB800A062002010BC70478C46A36A00EB134058
:101EC800002308E003F1400104EB8101496800EBBD
:101ED80011400133DBB20CF1FF318B42F2D340EAFF
:101EE80002400CF13F0104EB81014860E1E703681F
:101EF8005962002070477047002800F0E08170B5F3
:101F080082B00446036813F0010F3BD09F4B9B68D7
:101F180003F00C03042B2CD09C4B9B6803F00C03A0
:101F2800082B21D06368B3F5803F4FD0B3F5A02FBD
:101F380052D0964B1A6822F480321A601A6822F43A
:101F480080221A606368002B50D0FEF7A3FF054675
:101F58008E4B1B6813F4003F14D1FEF79BFF401B08
:101F68006428F5D90320B1E1884B5B6813F4800F2E
:101F7800D8D0864B1B6813F4003F03D06368002B4E
:101F880000F09F81236813F0020F54D07F4B9B68A9
:101F980013F00C0F3ED07D4B9B6803F00C03082B0D
:101FA80033D0E368002B68D0794B01221A60FEF722
:101FB80071FF0546754B1B6813F0020F54D1FEF7ED
:101FC80069FF401B0228F5D903207FE16F4A136897
:101FD80043F480331360B5E76C4B1A6842F48022EF
:101FE8001A601A6842F480321A60ABE7FEF752FFB3
:101FF8000546664B1B6813F4003FC3D0FEF74AFF43
:10200800401B6428F5D9032060E1604B5B6813F43A
:10201800800FC6D15D4B1B6813F0020F03D0E36835
:10202800012B40F05081594A136823F0F8032169C5
:1020380043EAC1031360236813F0080F42D06369B1
:102048006BB3534B0122C3F8802EFEF723FF0546DE
:102058004E4B5B6F13F0020F34D1FEF71BFF401B92
:102068000228F5D9032031E1484A136823F0F80320
:10207800216943EAC1031360DDE7454B00221A607A
:10208800FEF708FF0546414B1B6813F0020FD2D03C
:10209800FEF700FF401B0228F5D9032016E13C4B50
:1020A8000022C3F8802EFEF7F5FE0546374B5B6F1E
:1020B80013F0020F06D0FEF7EDFE401B0228F5D9FB
:1020C800032003E1236813F0040F77D02F4B1B6C18
:1020D80013F0805F33D1002301932C4B1A6C42F02C
:1020E80080521A641B6C03F080530193019B0125F5
:1020F800284B1B6813F4807F23D0A368012B34D0AE
:10210800052B38D0214B1A6F22F001021A671A6F7B
:1021180022F004021A67A368002B3DD0FEF7BAFE2E
:1021280006461A4B1B6F13F0020F46D1FEF7B2FE9C
:10213800801B41F288339842F3D90320C6E000257A
:10214800D6E7144A136843F480731360FEF7A2FEBF
:102158000646104B1B6813F4807FCED1FEF79AFE1B
:10216800801B0228F5D90320B0E0084A136F43F01A
:1021780001031367CFE7054B1A6F42F004021A6791
:102188001A6F42F001021A67C5E700BF0038024023
:102198000000474200700040FEF77CFE0646524BA6
:1021A8001B6F13F0020F08D0FEF774FE801B41F27C
:1021B80088339842F3D9032088E0EDB9A369002B4E
:1021C80000F08380484A926802F00C02082A51D035
:1021D800022B17D0454B00221A66FEF75BFE044619
:1021E800414B1B6813F0007F42D0FEF753FE001BE3
:1021F8000228F5D9032069E03B4A136C23F0805389
:102208001364DBE7394B00221A66FEF743FE0546E6
:10221800354B1B6813F0007F06D0FEF73BFE401BD2
:102228000228F5D9032051E0E369226A1343626A60
:1022380043EA8213A26A5208013A43EA0243E26A75
:1022480043EA0263284A5360284B01221A66FEF7C4
:1022580021FE0446244B1B6813F0007F06D1FEF7CD
:1022680019FE001B0228F5D903202FE000202DE0DD
:1022780000202BE0012B2BD01B4B5B6803F4800163
:10228800E269914226D103F03F02216A8A4223D1B2
:10229800616A47F6C0721A40B2EB811F1ED103F47F
:1022A8004031A26A5208013AB1EB024F18D103F04B
:1022B8007063E26AB3EB026F14D1002006E00120DC
:1022C8007047012002E0012000E0002002B070BD4C
:1022D8000120FBE70120F9E70120F7E70120F5E7F6
:1022E8000120F3E70120F1E70038024000004742EF
:1022F80008B5254B9B6803F00C03042B3FD0082B33
:102308003FD1214B5A6802F03F025B6813F4800FFB
:1023180012D01D4B5968C1F388111C480023A1FB3A
:102328000001FDF755FF184B5B68C3F30143013308
:102338005B00B0FBF3F025E0134B5968C1F3881C30
:102348004FEA4C11B1EB0C006EEB0E0E4FEA8E13F8
:1023580043EA90638101091A63EB0E03DB0043EA49
:102368005173C90011EB0C0C43F1000399020023CF
:102378004FEA8C2041EA9C51FDF72AFFD3E7034836
:1023880000E0034808BD00BF0038024040787D01E6
:102398000024F400002800F09B8070B50D46044628
:1023A8004F4B1B6803F007038B4208D2CBB24C4A51
:1023B8001370136803F007038B4240F08B80236887
:1023C80013F0020F17D013F0040F04D0454A936896
:1023D80043F4E0539360236813F0080F04D0414A94
:1023E800936843F4604393603E4A936823F0F00394
:1023F800A1680B439360236813F0010F32D0636820
:10240800012B21D09A1E012A25D9364A126812F0CA
:10241800020F61D033498A6822F0030213438B60AC
:10242800FEF738FD06462F4B9B6803F00C036268E5
:10243800B3EB820F16D0FEF72DFD801B41F28833D7
:102448009842F0D9032042E0264A126812F4003F6D
:10245800E0D101203BE0234A126812F0007FD9D175
:10246800012034E01E4B1B6803F00703AB4207D979
:10247800EAB21B4B1A701B6803F00703AB422DD15D
:10248800236813F0040F06D0164A936823F4E05328
:10249800E1680B439360236813F0080F07D0114AD3
:1024A800936823F46043216943EAC1039360FFF70B
:1024B8001FFF0C4B9B68C3F303130B4AD35CD84034
:1024C8000A4B18600A4B1868FEF798FC002070BD8C
:1024D800012070470120FAE70120F8E70120F6E71C
:1024E800003C024000380240005300080000002071
:1024F80008000020014B1868704700BF000000204A
:1025080008B5FFF7F7FF044B9B68C3F38223034A20
:10251800D35CD84008BD00BF003802401053000803
:1025280008B5FFF7E7FF044B9B68C3F34233034A40
:10253800D35CD84008BD00BF0038024010530008E3
:102548002DE9F04782B00546884617461E46FEF735
:10255800A1FC0A9B1B1A03EB0609FEF79BFC8246AB
:102568002B4B1B68C3F3CB3309FB03F301932B6895
:102578009C6838EA04030CBF4FF0010C4FF0000CC4
:10258800BC4540D0B6F1FF3FF1D0FEF783FCA0EB8D
:102598000A0048450AD2B9F1000F07D0019A02B1E2
:1025A8004A46019B013B01939146E0E72A6853683C
:1025B80023F0E00353606B68B3F5827F0BD0AB6AFE
:1025C800B3F5005F14D0012385F85130002385F856
:1025D8005030032018E0AB68B3F5004F02D0B3F5D4
:1025E800806FECD12A68136823F040031360E6E794
:1025F8002A68136823F4005313602A68136843F4A5
:1026080000531360DFE7002002B0BDE8F08700BF89
:102618000000002010B584B00446164B1868164B0D
:10262800A3FB0030400D4FF47A7303FB00F00390D6
:102638006368B3F5827F0BD0039BBBB1039B013B5F
:10264800039323689B6813F0800FF5D100200EE0F8
:1026580000920B46002280212046FFF771FF30B11F
:10266800636D43F020036365032000E0002004B09D
:1026780010BD00BF00000020819F5E1600285AD0C0
:1026880010B50446436A33B94368B3F5827F05D071
:102698000023C36102E00023036143610023A362B6
:1026A80094F85130002B40D0022384F8513022682E
:1026B800136823F040031360636803F48273A2680D
:1026C80002F404421343E26802F4006213432269ED
:1026D80002F002021343626902F001021343A26985
:1026E80002F400721343E26902F038021343226ACB
:1026F80002F080021343A26A02F4005221681343D5
:102708000B60638B03F00403626A02F01002216815
:1027180013434B602268D36923F40063D36100201C
:102728006065012384F8513010BD84F8503020468C
:10273800FEF76EFAB8E7012070472DE9F04383B041
:102748001D4690F85030012B00F0D1800446884691
:102758009146012380F85030FEF79CFB074694F819
:102768005160F6B2012E40F0AF80B8F1000F00F0D2
:10277800AC80B9F1000F00F0A880032384F8513031
:1027880000236365C4F83080A4F83490A4F8369028
:10279800A363A387E38763642364A368B3F5004F47
:1027A8001ED023681A6812F0400F03D11A6842F04D
:1027B80040021A60E368B3F5006F1CD0636813B178
:1027C800B9F1010F52D1226B236812781A73236B67
:1027D80001332363E38E9BB2013B9BB2E38645E062
:1027E8002268136823F0400313602268136843F4D7
:1027F80080431360D5E7636813B1B9F1010F16D1AF
:10280800226B23681288DA60236B02332363E38E1A
:102818009BB2013B9BB2E38609E0FEF73BFBC01B82
:10282800A84202D3B5F1FF3F59D1002D59D0E38E0C
:102838009BB2002B33D023689A6812F0020FECD0B9
:10284800226B1288DA60236B02332363E38E9BB218
:10285800013B9BB2E386EAE7FEF71CFBC01BA842DC
:1028680002D3B5F1FF3F3ED1002D3ED0E38E9BB29F
:10287800ABB123689A6812F0020FEDD0226B127880
:102888001A73236B01332363B4F836C01FFA8CFC28
:102898000CF1FF3C1FFA8CFCA4F836C0E6E73A4678
:1028A80029462046FFF7B6FE08B120236365A368D2
:1028B80033B901932368DA6801929B680193019BFD
:1028C800636D13B9002600E00226012384F8513015
:1028D800002384F85030304603B0BDE8F083032667
:1028E800F3E70326F1E70326EFE70326EDE70226E1
:1028F800F1E7026802F10C0353E8003F23F49073F8
:102908000C3242E800310029F3D1026802F11403C5
:1029180053E8003F23F00103143242E80031002954
:10292800F3D1036B012B05D0202380F83E30002320
:1029380003637047026802F10C0353E8003F23F079
:1029480010030C3242E800310029F3D1ECE790F88B
:102958003D30DBB2212B01D0022070478368B3F5EC
:10296800805F17D0036A5A1C02621A7803685A609B
:10297800C38C9BB2013B9BB2C3844BB90268D3683A
:1029880023F08003D3600268D36843F04003D36028
:10299800002070470369002BE4D1036A1B88026892
:1029A800C3F308035360036A02330362E0E70000DD
:1029B80038B504460268136923F44053C1680B43D1
:1029C800136183680269134342691343C2691A4356
:1029D8000168CB6823F4164323F00C031343CB6040
:1029E8000268536923F4407381690B435361036898
:1029F800314A934206D002F58062934202D0FFF733
:102A08007FFD01E0FFF78CFDE369B3F5004F29D0A6
:102A18000021031849411B1841F10001C90041EA8E
:102A28005371DB00181863684FEA83024FEA937307
:102A380041F10001FDF7CCFB204DA5FB0032510907
:102A4800642303FB11031B013233A5FB03235B093A
:102A580003F0F00202EB011203F00F0321681344A4
:102A68008B6038BD0023021843EB0301121841F1B3
:102A78000001C90041EA5271D200101841F1000169
:102A8800626892185B41FDF7A3FB0C4DA5FB003271
:102A98005109642303FB1103DB003233A5FB032335
:102AA8005B095A0002F4F87202EB011203F0070303
:102AB800216813448B60D4E7001001401F85EB5157
:102AC80058B310B5044690F83D300BB3242384F86E
:102AD8003D302268D36823F40053D3602046FFF7C3
:102AE80067FF2268136923F49043136122685369CE
:102AF80023F02A0353612268D36843F40053D36058
:102B080000202064202384F83D3084F83E3010BD36
:102B180080F83C30FEF708F9D8E701207047704785
:102B280008B50168CA6822F04002CA60202280F80D
:102B38003D20FFF7F4FF002008BD7047704708B537
:102B4800806B0023C385C384FFF7F8FF08BD704777
:102B580090F83E30DBB2222B67D18368B3F5805FF3
:102B68004DD0826AB3F5805F04D0002B54D103693D
:102B7800002B51D103685B681370836A0133836249
:102B8800C38D9BB2013B9BB2C385002B4FD100B5CF
:102B980083B00268D36823F02003D3600268D36847
:102BA80023F48073D3600268536923F001035361EF
:102BB800202380F83E30036B012B33D100230363BD
:102BC800026802F10C0353E8003F23F010030C32B3
:102BD80042E800310029F3D103681A6812F0100F97
:102BE80006D0002201921A6801925B680193019B4A
:102BF800818DFFF7ACFF002003B05DF804FB02698C
:102C0800002AAED1826A03685B68C3F308031380A5
:102C1800836A02338362B3E703685B6803F07F0368
:102C28001370AAE7FFF789FFE5E702207047002045
:102C38007047000030B583B0044602681368D06856
:102C4800516913F00F0505D113F0200F02D010F0D1
:102C5800200F19D12DB111F0010119D110F4907F75
:102C680016D1216B01297DD013F0800F03D010F00D
:102C7800800F40F0158113F0400F03D010F0400F83
:102C880040F0128103B030BD2046FFF761FFF9E73D
:102C980013F0010F06D010F4807F03D0226C42F0AD
:102CA8000102226413F0040F04D019B1226C42F01F
:102CB8000202226413F0020F04D019B1226C42F010
:102CC8000402226413F0080F07D010F0200F00D17F
:102CD80019B1226C42F008022264226C002AD1D079
:102CE80013F0200F02D010F0200F29D123685B6960
:102CF80003F04003226C12F0080F00D163B32046A2
:102D0800FFF7F7FD23685B6913F0400F20D02268B6
:102D180002F1140353E8003F23F04003143242E861
:102D280000310029F3D1A36B73B1614A1A65A06B16
:102D3800FEF780F90028A5D0A06B036D9847A1E79E
:102D48002046FFF705FFD1E72046FFF7F7FE99E792
:102D58002046FFF7F3FE95E72046FFF7EFFE002336
:102D680023648FE713F0100F3FF47EAF10F0100FBD
:102D78003FF47AAF002301931368019353680193DA
:102D8800019B536913F0400F50D0A26B13685B6826
:102D98009BB2002B3FF476AFA18D99427FF672AFBC
:102DA800E385D369B3F5807F37D0226802F10C033D
:102DB80053E8003F23F480730C3242E800310029C5
:102DC800F3D1226802F1140353E8003F23F0010312
:102DD800143242E800310029F3D1226802F11403C9
:102DE80053E8003F23F04003143242E80031002941
:102DF800F3D1202384F83E3000232363226802F1B4
:102E08000C0353E8003F23F010030C3242E8003172
:102E18000029F3D1A06BFEF7C3F8A18DE38D9BB217
:102E2800C91A89B22046FFF792FE2BE7A18DE38DE0
:102E38009BB2C91A89B2E38D9BB2002B3FF422AF33
:102E480000293FF41FAF226802F10C0353E8003F4A
:102E580023F490730C3242E800300028F3D1226842
:102E680002F1140353E8003F23F00103143242E84F
:102E780000300028F3D1202384F83E300023236358
:102E8800226802F10C0353E8003F23F010030C32D0
:102E980042E800300028F3D12046FFF758FEF1E65B
:102EA8002046FFF754FDEDE62046FFF739FEE9E638
:102EB800472B000882B000230193019B0133019343
:102EC800019A0F4B9A4215D80369002BF5DA0023B3
:102ED8000193036943F001030361019B01330193EB
:102EE800019A074B9A4208D8036913F0010FF4D1ED
:102EF800002000E0032002B070470320FBE700BF7A
:102F0800400D030084B010B5044603A880E80E0005
:102F1800089B012B1FD1A36B23F48033A363E368C1
:102F280023F4840323F04003E360E36823F44013AD
:102F3800E3600F9B012B09D02046FFF7BBFF069BE0
:102F4800012B1BD0BDE8104004B07047E36843F480
:102F58008013E360F0E7E36843F04003E360204652
:102F6800FFF7A8FF0C9B23B9A36B43F48033A3633B
:102F7800E5E7A36B23F48033A363E0E7A36843F09A
:102F88000603A360A36843F02003A360DAE7000008
:102F9800022A0AD00921C26822F47052C260C368AA
:102FA80043EA8123C36000207047234B0B44234A24
:102FB80093422FD9224B0B44224A93422CD9A1F594
:102FC8007403A3F51053204A934227D9A1F18373C0
:102FD800A3F5E7431D4A934222D31D4B0B441D4AD8
:102FE80093421FD91C4B0B441C4A93421CD31C4BC5
:102FF8000B441C4A934219D3A1F1B773A3F5585354
:10300800194A934214D3194B0B44194A934211D2CB
:103018000721C0E70F21BEE70E21BCE70D21BAE763
:103028000C21B8E70B21B6E70A21B4E70921B2E77A
:103038000821B0E70621AEE7405327FFFF340C0014
:10304800401E1BFF3F420F007F4F120020D6130087
:1030580060B6E5FE5FE3160000D3CEFE40771B00A6
:10306800C05BB3FEC091210020753800E05459FEC2
:10307800E09C4100836843F00103836000207047AF
:10308800836823F0010383600020704782B0002327
:103098000193019B01330193019A0F4B9A4215D872
:1030A8000369002BF5DA00230193890141F020011F
:1030B8000161019B01330193019A074B9A4208D899
:1030C800036913F0200FF4D1002000E0032002B0C0
:1030D80070470320FBE700BF400D030082B00023C8
:1030E8000193019B01330193019A0E4B9A4213D825
:1030F8000369002BF5DA0023019310230361019B78
:1031080001330193019A074B9A4208D8036913F0D7
:10311800100FF4D1002000E0032002B07047032014
:10312800FBE700BF400D0300D0F800381943C0F892
:10313800001800207047000084B02DE9F0410446D3
:1031480007A880E80E00002306E003F1400204EB24
:1031580082020021516001330E2BF6D9119F27BB43
:10316800D4F8043843F00203C4F80438A36B43F4DA
:103178000013A363A36B23F40023A363A36B23F4BB
:103188008023A3630023C4F8003E04F50065D4F847
:103198000038C4F800380C9B012B14D1099B6BB97B
:1031A80000212046FFF7C0FF11E0A36B23F40013B2
:1031B800A363A36B43F40023A363E3E70121204641
:1031C800FFF7B2FF03E003212046FFF7ADFF102110
:1031D8002046FFF75BFF804608B14FF00108204604
:1031E800FFF77CFF08B14FF0010800232B616B61EA
:1031F800EB610AE0C3B94FF00060C2F80009002291
:103208000A614FF67F328A6001330799994210D9D3
:1032180004EB431202F51061D2F800090028E9DB3B
:103228000020C2F80009EAE74FF09040C2F8000910
:10323800E5E700230AE0C3B14FF0904CC2F800CB99
:10324800002202614FF67F3282600133994211D920
:1032580004EB431202F53060D2F8006B002EEADB73
:103268004FF0000CC2F800CBEAE74FF0006CC2F850
:1032780000CBE5E72B6923F480732B610023A3615E
:103288006FF0804363610A9B1BB9A36943F0100385
:10329800A361A2690B4B1343A3610D9B1BB1A369E7
:1032A80043F00803A361012F04D04046BDE8F04174
:1032B80004B07047A36943F0804343F00403A3615B
:1032C800F3E700BF00383C80D0F8083813F0060355
:1032D80007D0022B07D0062B01D00F207047022001
:1032E8007047002070470220704710B591F800C061
:1032F8004B78012B23D000F5006ED0F81C380CF069
:103308000F040122A24043EA0243C0F81C3800EB34
:103318004C10D0F8003B13F4004F0ED1D0F8003B0E
:10332800CA68C2F30A02097942EA8142134343F0A8
:10333800805343F40043C0F8003B002010BDD0F890
:103348001C280CF00F0E03FA0EF39BB21343C0F8BF
:103358001C3800EB4C10D0F8003913F4004FECD1B6
:10336800D0F80039CA68C2F30A02097942EA8142F0
:1033780042EA8C5C43EA0C0343F0805343F4004375
:10338800C0F80039D9E7000030B40B784A78012A30
:1033980026D000EB4313D3F8002B002A52DBD0F8D9
:1033A8003C480A7802F00F024FF0010C0CFA02F2C6
:1033B80024EA0242C0F83C28D0F81C28097801F019
:1033C8000F010CFA01FC22EA0C42C0F81C28D3F8C1
:1033D800001B234A0A40C3F8002B002030BC70476A
:1033E80000EB4313D3F80029002A1EDBD0F83C5821
:1033F8000A7802F00F02012404FA02F292B225EAD6
:103408000202C0F83C28D0F81C28097801F00F0106
:103418008C40A4B222EA0404C0F81C48D3F800196E
:10342800104A0A40C3F80029D7E7D3F8002942F028
:103438000062C3F80029D3F8002942F08042C3F89B
:103448000029D3E7D3F8002B42F00062C3F8002B21
:10345800D3F8002B42F08042C3F8002B9FE700BF4F
:103468000078F3EF007833EC30B40B784C78012C0B
:1034780029D000EB431000F530631C69E40CE40428
:103488001C611C6924F0FF5424F4C0141C618C696D
:103498000CB1CC688C61CC68CC611C6944F4002404
:1034A8001C611C69CD69C5F3120C44EA0C041C614B
:1034B800012A68D0D0F8003B43F00443C0F8003B31
:1034C800002030BC70478C696CBB00EB4314D4F807
:1034D800105925F0FF5525F4C015C4F81059D4F833
:1034E800105945F40025C4F81059D4F81059ED0CBA
:1034F800ED04C4F81059012A36D000EB4313D3F871
:10350800002942F00442C3F800298B69002BD7D068
:10351800D0F834380A7802F00F0101228A401343A8
:10352800C0F83438CCE700EB431404F5106425697F
:10353800ED0CED042561256925F0FF5525F4C0152E
:103548002561CD68D1F818C0AC4500D98D612569D1
:1035580045F4002525612569D1F818C0CCF3120C73
:1035680045EA0C052561C6E74A691AB100EB431123
:10357800C1F8142900EB4310D0F8002942F00442A6
:10358800C0F800299CE70A69002A93D05A6191E79C
:1035980010B483B0024600230193487801280AD06A
:1035A8000B7802EB4313D3F8000B00282CDB002028
:1035B80003B010BC70470B7802EB4313D3F80049F3
:1035C800002C01DB0020F3E7D3F8004944F0006445
:1035D800C3F800490B7802EB4313D3F8004944F0D1
:1035E8008044C3F80049019B01330193019C42F2D6
:1035F80010739C42DCD80B7802EB4313D3F80039E4
:10360800002BF0DB0020D3E7D3F8000B40F000607C
:10361800C3F8000B0B7802EB4313D3F8000B40F010
:103628008040C3F8000B019B01330193019842F2DB
:103638001073984208D80B7802EB4313D3F8003B79
:10364800002BF0DB0020B3E70120B1E710B59DF8AF
:10365800084084B903334FEA930E4FF0000C08E09A
:1036680000EB023303F5805351F8044B1C600CF156
:10367800010CF445F4D3002010BD0000F0B583B070
:103688000B784C78012C33D000EB431303F5306CE6
:10369800DCF81040E40CE404CCF81040DCF81040EE
:1036A80024F0FF5424F4C014CCF810408C69002C8A
:1036B80040F0C780DCF81040CD68C5F312052C43F4
:1036C800CCF81040DCF8104044F40024CCF810404A
:1036D800012A00F0D0800A79012A00F0D380D3F8BB
:1036E800002B42F00442C3F8002B002003B0F0BDC9
:1036F8008C6984BB00EB4314D4F8105925F0FF55AE
:1037080025F4C015C4F81059D4F8105945F400250B
:10371800C4F81059D4F81059ED0CED04C4F8105938
:10372800012A4CD000EB4313D3F8004944F0044479
:10373800C3F800490C79012C6AD08B69002BD4D0CE
:10374800D0F834380A7802F00F0101228A40134376
:10375800C0F83438C9E700EB4314D4F81059ED0C1D
:10376800ED04C4F81059D4F8105925F0FF5525F484
:10377800C015C4F81059D4F810698D69CF683D4454
:10378800013DB5FBF7F5494F07EAC5453543C4F890
:103798001059D4F810598E69C6F312063543C4F887
:1037A800105904F510640D79012DB9D1256925F05A
:1037B800C0452561256945F000552561B0E74A698E
:1037C8001AB100EB4314C4F814290A79012A08D065
:1037D80000EB4313D3F8002942F00442C3F8002950
:1037E80083E7D0F8082812F4807F08D100EB431152
:1037F800D1F8002942F00052C1F80029E8E700EBAF
:103808004311D1F8002942F08052C1F80029DFE7BE
:10381800D0F8084814F4807F0CD1D3F8004944F05C
:103828000054C3F8004900920B8B0A780969FFF726
:103838000DFF5AE7D3F8004944F08054C3F8004913
:10384800F1E7CD682C44013CB4FBF5F4A4B204FBC9
:1038580005F5CD61DCF81050144E06EAC4442C433B
:10386800CCF81040DCF81040CD69C5F312052C43A4
:10387800CCF810402CE70A69002A3FF42CAFCCF8AA
:10388800142028E7D0F8082812F4807F06D1D3F84E
:10389800002B42F00052C3F8002B20E7D3F8002B8E
:1038A80042F08052C3F8002B19E700BF0000F81F50
:1038B80000B583B0844608464FEA920E02F0030230
:1038C800002305E00CF58051096840F8041B01331A
:1038D8007345F7D39AB10CF5805CDCF8003001939E
:1038E8004FF0000C5FFA8CF3D900019BCB4000F835
:1038F800013B0CF1010C013A92B2002AF2D103B05B
:103908005DF804FB0B784A78012A14D000EB4310C9
:10391800D0F8002B002A06DB2BB1D0F8003B23F0AF
:103928008043C0F8003BD0F8003B43F40013C0F8D4
:10393800003B0020704700EB4310D0F80029002A14
:1039480006DB2BB1D0F8003923F08043C0F80039EA
:10395800D0F8003943F40013C0F80039E9E70B78D0
:103968004A78012A0ED000EB4310D0F8003B23F42C
:103978000013C0F8003B0B79023BDBB2012B15D9D1
:103988000020704700EB4310D0F8003923F40013EF
:10399800C0F800390B79023BDBB2012BF0D8D0F824
:1039A800003943F08053C0F80039E9E7D0F8003B0C
:1039B80043F08053C0F8003BE2E7D0F8003823F426
:1039C800FE63C0F80038D0F80038090101F4FE6140
:1039D8001943C0F8001800207047D0F8003E23F0C3
:1039E8000303C0F8003ED0F8043823F00203C0F8FF
:1039F800043800207047D0F8003E23F00303C0F8D5
:103A0800003ED0F8043843F00203C0F80438002020
:103A180070474269806910407047D0F8183800F53F
:103A28000060C0691840000C7047D0F8183800F5DD
:103A38000060C069184080B2704700EB4111D1F8AE
:103A4800082B00F5006040691040704710B4D0F8AA
:103A58001048D0F8343801F00F02D340DB01DBB254
:103A6800234300EB411000F510608068184010BC3B
:103A78007047406900F00100704738B50546C368D3
:103A880023F0C043C360012913D019BBC36843F0B6
:103A98008043C36000240120FDF702FA0134284660
:103AA800FFF7E7FF08B1312CF5D9322C14D00020EC
:103AB80038BDC36843F00053C36000240120FDF7FC
:103AC800EFF901342846FFF7D4FF0128EDD0312C57
:103AD800F4D9EAE70120EBE70120E9E7D0F800395B
:103AE80023F4FF6323F00703C0F80039D0F8043843
:103AF80043F48073C0F804380020704710B4046C95
:103B0800144B9C4203D9D0F8003B002B16DB002451
:103B1800C0F8104BD0F8104B44F40024C0F8104BF8
:103B2800D0F8104B44F01804C0F8104BD0F8104BE4
:103B380044F0C044C0F8104B012902D0002010BC4A
:103B48007047C0F8142BD0F8003B43F08023C0F82E
:103B5800003BF3E70A30544F10B5D0F8D43203F1E4
:103B6800B00250F822408CB100EB820043687BB170
:103B780094F80002FF280DD09B6894F80122214692
:103B88009847FF2384F80032002010BD0320FCE78B
:103B98000020FAE70020F8E70A230380004870476E
:103BA80088000020F8B506460F4F8221384600F0FD
:103BB8001FFC05460121384600F01AFC0446812105
:103BC800384600F015FC0DB11022AA711CB1402234
:103BD80022710022627118B14022027100224271E2
:103BE800432333800048F8BD44000020F8B506465A
:103BF8000F4F8221384600F0FBFB0546012138466D
:103C080000F0F6FB04468121384600F0F1FB0DB1C7
:103C18001022AA711CB1402222710022627118B1CF
:103C28004022027100224271432333800048F8BDCC
:103C380044000020F8B506460F4F8221384600F0B0
:103C4800D7FB05460121384600F0D2FB0446812106
:103C5800384600F0CDFB0DB11022AA711CB100222C
:103C680022710222627118B100220271022242718D
:103C7800432333800048F8BD4400002038B5D0F80D
:103C8800D432B03350F8235095B1044601F0AFF95F
:103C9800C5F80C02D4F8D432B03304EB830463685B
:103CA800DB6805F50371D5F804029847002038BD94
:103CB8000320FCE738B5D0F8C852D0F8D432B03376
:103CC80050F8234084B301F00F0303EB830200EBA9
:103CD800820292694AB103EBC30C05EB8C05AD6C0B
:103CE800B2FBF5FC05FB1C2292B10023C4F8143288
:103CF800D0F8D432B03300EB830043681B69ABB112
:103D08000A4604F50471D4F808029847002038BD23
:103D180003EB830300EB830300249C6123462246C4
:103D280001F0AEF92046F2E70320F0E70020EEE7C5
:103D3800F0B583B0D0F8D43203F1B00250F8227055
:103D480000228DF80720ADF80420002F7BD0044610
:103D58000D46097811F0600634D0202E6CD1EA881F
:103D68002AB311F0800F07D16B7887F80032EA8800
:103D78003F2A13D8D2B212E0B03300EB83035B685A
:103D88009B68394668789847EA88072A28BF072237
:103D98003946204600F0DCFE002651E0402287F834
:103DA80001223946204600F0E8FE002648E0B033FC
:103DB80000EB830463689B6800222946687898476B
:103DC80000263DE06F780B2F31D8DFE807F0063981
:103DD8003030303030303030162690F89C32DBB23C
:103DE800032B04D0294600F040FB032628E00222DA
:103DF80001A900F0ADFE3E4622E090F89C32DBB20D
:103E0800032B04D0294600F030FB032618E00122DA
:103E18000DF1070100F09CFE12E090F89C32DBB235
:103E2800032B0DD0294600F020FB032608E0294685
:103E380000F01BFB032603E0294600F016FB0326CF
:103E4800304603B0F0BD0326FAE738B504468121B1
:103E580001F0F6F8002525870121204601F0F0F849
:103E6800A4F878518221204601F0EAF8A4F84C50D1
:103E7800A4F84E50D4F8D43203F1B00254F82220FA
:103E88009AB1B03304EB83035B685B689847D4F856
:103E9800D432B03354F8230001F0B4F8D4F8D43253
:103EA800B03344F82350C4F8BC52002038BD70B574
:103EB80004464FF4077001F0A1F8002849D00546E0
:103EC8004FF40772002101F00FF9D4F8D432B0335F
:103ED80044F82350C4F8BC52237C002B41D14FF442
:103EE800007302228121204601F09FF801262687CF
:103EF8004FF4007302223146204601F096F8A4F8E8
:103F080078611023A4F84E3008230322822120462A
:103F180001F08BF80123A4F84C300026C5F80462A0
:103F2800D4F8D432B03304EB83035B681B6898473A
:103F3800C5F81462C5F81862D5F8042262B3257C66
:103F48001DBB4FF400730121204601F0A1F828465B
:103F580070BDD4F8D432B033002244F823200225AF
:103F6800F5E7402302228121204601F05EF8012670
:103F78002687402302223146204601F056F8A4F84D
:103F880078611023A4F84E30BEE740230121204673
:103F980001F07EF80025DAE70225D8E739B1D0F834
:103FA800D432B03300EB8300416000207047032017
:103FB8007047D0F8D432B03350F823302BB1C3F85F
:103FC8000812C3F810220020704703207047D0F869
:103FD800D432B03350F823301BB1C3F80412002098
:103FE80070470320704710B5D0F8D432B03350F87A
:103FF800232092B1047C44B94FF40073D2F8042210
:10400800012101F045F8204610BD4023D2F80422D2
:10401800012101F03DF80024F5E70324F3E798B106
:1040280008B503460020C3F8B802C3F8C402C3F8B1
:10403800D00209B1C3F8B412012183F89C121A7096
:10404800184600F089FF08BD0320704710B582B0FC
:104058000023ADF8063089B10446C0F8B812CB6A1F
:1040680023B10DF106009847C4F8D002D4F8D8322D
:104078000133C4F8D832002002B010BD0320FBE79A
:1040880008B500F0CAFF08BD08B5D0F8B83213B1BA
:104098001B68984708BD0020FCE708B5D0F8B8327F
:1040A8005B68984700B908BD0320FCE738B50446AB
:1040B80000F2AA25284600F0C4F90123C4F8943276
:1040C800B4F8B032C4F8983294F8AA1201F01F0379
:1040D800012B0DD0022B10D02BB101F0800120460E
:1040E80000F0B6FF03E02946204600F07FFB38BD0C
:1040F8002946204600F0B5FBF9E72946204600F09E
:10410800F2FBF4E7F8B50446012380F89C3200235B
:10411800C0F894324360C0F8A43280F8A032D0F8D6
:10412800B832DBB15B68DBB1002198470746C8B9F4
:10413800402300221146204600F077FF0126A4F80C
:1041480064614025C4F860512B4600228021204636
:1041580000F06BFFA68425623846F8BD0027E7E724
:104168000027E5E70327E3E701740020704790F88C
:104178009C32DBB280F89D32042380F89C32002008
:10418800704790F89C32DBB2042B01D000207047B6
:1041980090F89D32DBB280F89C32F7E708B590F8CA
:1041A8009C32DBB2032B01D0002008BDD0F8B83216
:1041B800002BF9D0DB69002BF6D09847F4E708B557
:1041C800D0F8D432AE3350F823205AB190F89C324C
:1041D800DBB2032B01D0002008BD136A23B1984736
:1041E8000020F9E70320F7E70020F5E708B5D0F845
:1041F800D432AE3350F823205AB190F89C32DBB257
:10420800032B01D0002008BD536A23B19847002032
:10421800F9E70320F7E70020F5E70020704708B525
:10422800012380F89C32D0F8B83223B15B68017959
:10423800984710B908BD0020FCE70320FAE70020E2
:1042480070470020704738B504460D46002943D111
:104258001346D0F89422032A01D0084638BDD0F876
:104268005C11D0F86021914212D890F8AA3203F07C
:104278001F03012B17D0022B1CD0284694F89C3220
:10428800DBB2032B1BD0204600F08EFC2846E5E766
:10429800891AC0F85C118A4228BF0A46194600F0FC
:1042A8007BFC2846DAE790F8AE12FFF7C8FF002833
:1042B800E9D1E3E790F8AE12FFF7C3FFF7E700F1A3
:1042C800AE0354F823301A69002ADCD0C4F8D402AB
:1042D8001B6920469847D6E701F07F01FFF7B1FF39
:1042E80090B994F89C32DBB2032BB7D100F1AE033E
:1042F80054F823309A69002AB0D0C4F8D4029B69D4
:10430800294620469847A9E70020A7E738B504467C
:104318000D4600294BD11346D0F89422022A07D023
:1043280094F8A00218B1002384F8A032284638BDBA
:10433800C269016A8A420ED88A4218D094F89C321F
:10434800DBB2032B27D08021204600F081FE2046D7
:1043580000F035FCE4E7521AC261194600F005FC8A
:1043680000231A461946204600F092FED8E78369D2
:104378009942E3D8D0F898229342DFD2002211461E
:1043880000F0F3FB0021C4F898120B460A462046B9
:1043980000F07EFEC4E7D4F8B832DA68002AD2D03A
:1043A8000022C4F8D422DB6820469847CBE741F0C6
:1043B8008001FFF746FF90B994F89C32DBB2032BDB
:1043C800B5D100F1AE0354F823305A69002AAED0B3
:1043D800C4F8D4025B69294620469847A7E700201D
:1043E800A5E703780A8813440B80037818447047BC
:1043F800428803789A4218D930B583B004460D46EE
:10440800ADF806306288BDF806309A420AD90DF137
:104418000601FFF7E6FF4378052BF3D18378AB421B
:10442800F0D100E0002003B030BD00207047034603
:10443800002002E00130C0B201331A78002AF9D115
:1044480070470B7803704B7843708B78CA7843EACF
:10445800022343800B794A7943EA022383808B79CC
:10446800CA7943EA0223C380704710B50446802105
:1044780000F0EEFD0021204600F0EAFD10BD30B549
:1044880083B004460D460023ADF806304A88130A67
:10449800013B062B00F2AB80DFE803F0041F33A9D1
:1044A800A98D9A00D0F8B4321B680DF10601007C82
:1044B8009847EA88002A00F0A380BDF80630002B50
:1044C80000F099809A4228BF1A46ADF806200146A6
:1044D800204600F03DFB03B030BD037C43B9D0F863
:1044E800B8329B6A0DF10600984702234370E0E753
:1044F800D0F8B832DB6A0DF1060098470223437002
:10450800D7E7D2B2052A52D8DFE802F003101D2AF5
:104518003744D0F8B4325B6823B10DF10601007C52
:104528009847C6E72946FFF7A0FFD4E7D0F8B4328A
:104538009B6823B10DF10601007C9847B9E729462D
:10454800FFF793FFC7E7D0F8B432DB6823B10DF16A
:104558000601007C9847ACE72946FFF786FFBAE7D3
:10456800D0F8B4321B6923B10DF10601007C9847DD
:104578009FE72946FFF779FFADE7D0F8B4325B69CA
:1045880023B10DF10601007C984792E72946FFF711
:104598006CFFA0E7D0F8B4329B6923B10DF1060196
:1045A800007C984785E72946FFF75FFF93E7294690
:1045B800FFF75BFF8FE7037C33B9D0F8B8325B6B4A
:1045C8000DF10600984774E72946FFF74EFF82E78A
:1045D800037C43B9D0F8B8321B6B0DF1060098473D
:1045E8000723437065E72946FFF73FFF73E729462E
:1045F800FFF73BFF6FE729462046FFF736FF6AE7DC
:10460800204600F0D1FA66E738B504468B88FBB936
:10461800CB88EBB94B887F2B1AD803F07F0590F82D
:104628009C32DBB2032B0CD080F89E52294600F056
:104638001FFD204600F0B8FA35B1022384F89C32F9
:1046480009E0FFF712FF06E0012384F89C3202E03C
:104658002046FFF70AFF38BD70B504460E468D7830
:104668002F4B1D70012D10D890F89C32DBB2022B15
:104678000FD0032B26D0FFF7F8FE294B19782046D8
:10468800FFF70BFD0325284670BDFFF7EEFE032557
:10469800F9E7A5B145602946FFF7F6FC054638B1AC
:1046A80031462046FFF7E1FE022384F89C32EAE710
:1046B800204600F079FA032384F89C32E3E700F0FF
:1046C80073FAE0E7CDB141688D4225D0C9B2FFF752
:1046D800E4FC134B197861602046FFF7D5FC0546CA
:1046E800B0B131462046FFF7C0FE21792046FFF7DA
:1046F800D4FC022384F89C32C5E7022380F89C325C
:1047080045602946FFF7C9FC204600F04DFABAE794
:10471800204600F049FAB6E700F046FA0025B2E76D
:10472800EC05002008B5CB88012B0BD190F89C3202
:10473800DBB2022B09D9032B09D10122011D00F09C
:1047480007FA01E0FFF791FE08BD5BB213B9FFF766
:104758008CFEF9E70146002341F8083F012200F0EA
:10476800F7F9F1E708B590F89C32013B022B12D813
:10477800CB88022B0CD10123C360D0F8A4320BB133
:104788000323C360022200F10C0100F0E1F908BD27
:10479800FFF76BFEFBE7FFF768FEF8E708B54B8805
:1047A800012B04D0022B07D0FFF75FFE08BDC0F82D
:1047B800A43200F0F9F9F9E78B881B0A80F8A032D7
:1047C80000F0F2F9F2E708B590F89C32013B022BB1
:1047D80009D84B88012B00D008BD0023C0F8A432AB
:1047E80000F0E2F9F8E7FFF740FEF5E738B50C7896
:1047F80004F06004202C06D0402C04D06CB1FFF7E4
:1048080034FE002407E0D0F8D432AE3350F8233019
:104818009B6898470446204638BD4D78092D1DD819
:10482800DFE805F012191C161C08051C0F0BFFF712
:1048380026FEF0E7FFF7E8FEEDE7FFF70DFF044679
:10484800E9E7FFF76FFFE6E7FFF78CFF2C46E2E7A3
:10485800FFF7A4FFDFE7FFF7B6FFDCE7FFF705FE8A
:10486800D9E770B505460C460B7803F06003202B9A
:1048780007D0402B05D023B1FFF7F7FD00263046BF
:1048880070BD95F89C32013B022B26D8217901296D
:1048980005D921462846FFF7E8FD0026EFE7284618
:1048A800FFF7CDFC68B900F1AE0255F822209168F7
:1048B80089B1C5F8D4029368214628469847064628
:1048C80000E00326E388002BD9D1002ED7D1284653
:1048D80000F06AF9D3E70326F4E721462846FFF7F4
:1048E800C4FD0026CBE72DE9F04106460D468B882E
:1048F800DFB20C7804F06004202C08D0402C06D0DD
:10490800DCB1FFF7B2FD00242046BDE8F08139464E
:104918003046FFF796FC0446002840F0F880C6F8B9
:10492800D40200F1AE0356F823309B68002BEBD07D
:104938002946304698470446E6E791F80180B8F1E1
:10494800010F31D0B8F1030F05D0B8F1000F67D0CF
:10495800FFF78BFDD8E790F89C32DBB2022B04D02E
:10496800032B12D0FFF781FDCEE70FB1802F04D1C2
:1049780029463046FFF779FDC6E7394600F068FB5F
:104988008021304600F064FBBEE74B8823B91FB195
:10499800802F01D0CB881BB1304600F005F9B3E772
:1049A800394600F055FBF7E790F89C32DBB2022B52
:1049B80004D0032B12D0FFF758FDA5E70FB1802FC5
:1049C80004D129463046FFF750FD9DE7394600F0EF
:1049D8003FFB8021304600F03BFB95E74B88002BDE
:1049E80092D117F07F0F17D1304600F0DDF8394625
:1049F8003046FFF726FC002886D1C6F8D40200F11D
:104A0800AE0256F822209268002A00F082802946D9
:104A180030469047044677E7394600F021FBE3E744
:104A280090F89C22D2B2022A05D0032A27D0FFF799
:104A38001CFD444668E70FB1802F13D113F0800F97
:104A480014D107F07F0707EB8707B90001F5A871B4
:104A58003144043100230B600222304600F078F81C
:104A6800444651E7FFF701FD44464DE707F07F074D
:104A780007EB8707B900103131440431EAE75BB22C
:104A8800002B1FDB07F00F0202EB820200EB820211
:104A9800B2F864211AB3002B25DB07F07F0303EB80
:104AA80083039C0004F5A874344404340FB1802FA8
:104AB80022D10023236002222146304600F048F824
:104AC800444621E707F00F0202EB820200EB820264
:104AD800928C002ADFD1FFF7C8FC444614E7FFF7A1
:104AE800C4FC444610E707F07F0303EB83039C00F4
:104AF800103434440434D9E73946304600F060FABB
:104B080010B101232360D6E700232360D3E70024F4
:104B1800FAE60446F8E6D0B170B50D4616460446E6
:104B2800FFF785FC431C5B009BB233802B7003238B
:104B38006B70022307E0EA5401345A1CD2B20021F8
:104B4800A9540233DBB22278002AF4D170BD704731
:104B580008B513460222C0F894228361C3610A464D
:104B6800002100F08DFA002008BD08B513460A465A
:104B7800002100F085FA002008BD08B5134603227D
:104B8800C0F89422C0F85831C0F85C310A460021B8
:104B980000F07EFA002008BD08B513460A46002139
:104BA80000F076FA002008BD08B50422C0F8942267
:104BB80000231A46194600F063FA002008BD08B51C
:104BC8000522C0F8942200231A46194600F060FA1C
:104BD800002008BD08B500220F491048FFF71FFA4A
:104BE80070B90F490D48FFF731FA60B90D490B4804
:104BF800FFF7D4F950B90948FFF742FA48B908BD98
:104C0800FBF766FFEDE7FBF763FFEFE7FBF760FFF6
:104C1800F1E7FBF75DFFF2E7A8000020F0050020B0
:104C28000C000020940000200020704700207047EE
:104C380000207047F0B583B006460D46134C014678
:104C48002046FFF7C4F92046FFF7CDF9104F3C681E
:104C58002A6831460F482044FBF73CFC0E4A13688B
:104C6800013313602B681C443C60B4F5204F02DA12
:104C7800002003B0F0BD00203860064B0093A0234D
:104C880080220146FBF782FEF2E700BFF005002014
:104C9800D0B80020D0180020CC08002010B5064C51
:104CA800002206492046FFF784F905492046FFF708
:104CB8008EF9002010BD00BFF0050020D0100020A4
:104CC800D008002012230B8000487047C400002041
:104CD80004230B8000487047D8000020002393422B
:104CE8001ED200B510E00CF1370C01F813C000011A
:104CF8004FEA430C0CF1010C4FF0000E01F80CE0E8
:104D08000133DBB2934209D24FEA107CB0F1204F55
:104D1800E9D20CF1300C01F813C0E8E75DF804FBA8
:104D28007047000038B50B4BD3F8100AD3F8144A73
:104D3800D3F8183AC01800D138BD074D0822A91C6D
:104D4800FFF7CCFF042205F112012046FFF7C6FF4A
:104D5800F2E700BF0070FF1FDC00002008B51A232F
:104D68000B80FFF7DFFF014808BD00BFDC00002013
:104D780008B50A4628B905490548FFF7CCFE034897
:104D880008BD02490248FFF7C6FEF8E7D4B800207C
:104D98001853000810B50A46034C21460348FFF78C
:104DA800BAFE204610BD00BFD4B80020305300081A
:104DB80008B50A4628B905490548FFF7ACFE034877
:104DC80008BD02490248FFF7A6FEF8E7D4B800205C
:104DD8004453000808B50A4628B905490548FFF7AD
:104DE8009AFE034808BD02490248FFF794FEF8E717
:104DF800D4B800205053000830B589B0002303937D
:104E080004930593069307930368B3F1A04F01D069
:104E180009B030BD00250195164C236B43F0010302
:104E28002363236B03F001030193019B4FF4C053E9
:104E3800039302230493032306930A23079303A9E6
:104E48000D48FCF70BF9636B43F08003636302952D
:104E5800636C43F480436364636C03F4804302939C
:104E6800029B2A4629464320FCF740F84320FCF7DA
:104E780075F8CDE7003802400000024008B500F29E
:104E8800C441D0F80805FFF711F908BD08B501EBD2
:104E9800C10300EB8303D3F88C22D0F80805FFF791
:104EA800D2F908BD08B501EBC10300EB8303DA6C46
:104EB800D0F80805FFF72AFA08BD08B5D0F80805A4
:104EC800FFF76CF908BD10B50446C368022B09D179
:104ED8000121D4F80805FFF747F9D4F80805FFF7CA
:104EE80011F910BDFBF7F4FDF2E7000010B5044618
:104EF800D0F80805FFF73BF92268D2F8003E43F0E6
:104F08000103C2F8003E236A23B1034A136943F040
:104F18000603136110BD00BF00ED00E008B5D0F82E
:104F28000805FFF72EF908BD08B5D0F80805FFF702
:104F38005DF908BD08B5D0F80805FFF740F908BDC8
:104F480008B5D0F80805FFF768F908BD08B5D0F826
:104F58000805FFF764F908BD02780AB10020704718
:104F680010B503461548C0F80835C3F8C8024FF015
:104F7800A0430360042343600222C260002303614C
:104F88008261C36103624362C3620363FCF7B4F9DD
:104F980080B90A4C80212046FCF7A9FF4022002155
:104FA8002046FCF77FFF802201212046FCF77AFF8C
:104FB800002010BDFBF78CFDEBE700BFD4BA002042
:104FC800D0F8C83211F0800F08D101F07F0101EB51
:104FD800C10103EB810191F87E02704701F07F0166
:104FE80001EBC10103EB810191F83E00704708B560
:104FF800D0F8C802FCF7A3FB08BD000000487047C2
:10500800E0BF00207047032805D8DFE800F005045A
:105018000205012070470320704708B5D0F8C80280
:10502800FCF701FAFFF7EFFF08BD08B594461A46EA
:105038006346D0F8C802FCF7D5FAFFF7E4FF08BDCD
:1050480008B5D0F8C802FCF712FBFFF7DCFF08BD73
:1050580008B5D0F8C802FCF7AAFBFFF7D4FF08BDD3
:1050680008B5D0F8C802FCF7E6FBFFF7CCFF08BD8F
:1050780008B5D0F8C802FCF7A1FAFFF7C4FF08BDCD
:1050880008B5D0F8C802FCF763FBFFF7BCFF08BD02
:1050980008B5D0F8C802FCF723FBFFF7B4FF08BD3A
:1050A80070B50D4E0D4D761BB61006D0002455F880
:1050B800043B01349847A642F9D1094E094D761BA5
:1050C80000F0D4F8B61006D0002455F8043B01349B
:1050D8009847A642F9D170BD6C5300086C5300087C
:1050E800745300086C530008830730B548D0541E29
:1050F800002A3FD0CAB2034601E0013C3AD303F884
:10510800012B9D07F9D1032C2DD9CDB245EA0525F0
:105118000F2C45EA054536D9A4F1100222F00F0CF0
:1051280003F1200EE6444FEA121C03F1100242E993
:10513800045542E9025510327245F8D10CF10102CA
:1051480014F00C0F03EB021204F00F0C13D0ACF1A7
:10515800040323F003030433134442F8045B93422B
:10516800FBD10CF003042CB1CAB21C4403F8012B88
:105178009C42FBD130BD64461346002CF4D1F9E7BC
:1051880003461446BFE71A46A446E0E7024B13B1AC
:10519800024800F005B8704700000000B55100084B
:1051A800002301461A46184600F01AB838B5084BCD
:1051B800084D5B1B9C1007D0043B1D44013C55F86F
:1051C80004399847002CF9D1BDE8384000F054B8AC
:1051D8007853000874530008704700BF704700BF39
:1051E8002DE9F047DFF87CA00646DAF8000098467B
:1051F8000F469146FFF7F0FF1B4B1B68D3F8484159
:1052080024B365681F2D26DC5EB96B1C0235DAF8FD
:105218000000636044F82570FFF7E0FF0020BDE858
:10522800F08704EB85010123C1F88890D4F8882120
:10523800AB401A43022EC4F88821C1F80881E4D192
:10524800D4F88C211343C4F88C31DEE703F5A67437
:10525800C3F84841D5E7DAF80000FFF7BFFF4FF081
:10526800FF30DCE72005002060530008F8B500BFD8
:10527800F8BC08BC9E467047F8B500BFF8BC08BC2F
:045288009E46704787
:10528C000F0180961180FFB103012C2DB203012C6C
:10529C002DB306012C2D012C2DB40107C003A20245
:1052AC0084C101C5C2020A00C3028A2AC4028AEE62
:1052BC00C5010E20003A0105022A040000007F2BD4
:1052CC00040000007F00000004E010021C071237ED
:1052DC0032292D29252B3900010310E110031D075C
:1052EC00062E2C292D2E2E373F0000021013800A7B
:1052FC00298064000000000000000000010203048B
:10530C0006070809000000000102030453544D3342
:10531C0032205669727475616C20436F6D506F72D8
:10532C007400000053544D6963726F656C6563744F
:10533C00726F6E696373000043444320436F6E6663
:10534C006967000043444320496E7465726661636B
:08535C0065000000F8000020CC
:08536400A4AEFF7F0100000070
:08536C0095510008BD01000885
:045374009901000893
:105378000024F4000100000010000000B73E0008FF
:10538800533E0008393D000800000000613B00085A
:10539800BD3C0008853C000800000000000000003B
:1053A800000000003D3C0008F53B0008AD3B00084C
:1053B800A13B000809024300020100C032090400B1
:1053C800000102020100052400100105240100016A
:1053D80004240202052406000107058203080010C0
:1053E80009040100020A000000070501024000004C
:1053F80007058102400000000A0600020000004084
:1054080001000000A54C0008314C0008354C00088C
:105418003D4C0008394C0008CD4C0008D94C000818
:105428009D4D0008794D0008654D0008B94D0008EC
:10543800DD4D0008120100020202004083044057BB
:105448000002010203010000040309041A0300001A
:105458000000000000000000000000000000000044
:10546800000000000000000000000000E40300202D
:105478004C040020B40400200000000000000000DC
:105488000000000000000000000000000000000014
:105498000000000000000000000000000000000004
:1054A80000000000000000000000000000000000F4
:1054B80000000000000000000000000000000000E4
:1054C80000000000000000000000000000000000D4
:1054D80000000000000000000000000000000000C4
:1054E80000000000000000000000000000000000B4
:1054F80000000000000000000000000000000000A4
:105508000000000000000000000000000000000093
:1055180001000000000000000E33CDAB34126DE630
:10552800ECDE05000B000000000000000000000099
:105538000000000000000000000000000000000063
:105548000000000000000000000000000000000053
:105558000000000000000000000000000000000043
:105568000000000000000000000000000000000033
:0458980000C200202A
:0400000508000DB131
:00000001FF
